:100000000C9456000C9460000C9460000C946000FA
:100010000C9460000C9460000C9460000C946000E0
:100020000C9460000C9460000C9460000C946000D0
:100030000C9460000C9460000C9460000C946000C0
:100040000C9460000C9460000C9460000C946000B0
:100050000C9460000C9460000C9460000C946000A0
:100060000C9460000C9460000C9460000C94600090
:100070000C9460000C9460000C9460000C94600080
:100080000C9460000C9460000C9460000C94600070
:100090000C9460000C9460000C9460000C94600060
:1000A0000C9460000C9460000C94600011241FBE3E
:1000B000CFEFCDBFD3E2DEBF0E9462000C94BD0043
:1000C0000C94000081E0809350008091510080FFEB
:1000D000FCCF88ED84BF1092400080916404807F43
:1000E00080936404809164048160809364048091AF
:1000F00060048F7C809360048091600480618093B1
:10010000600480916004887F809360048091600423
:1001100080936004809161048C7F8093610480915E
:10012000610482608093610480916104837F809385
:100130006104809161048C608093610481E080930C
:100140006106809160048F738093600480916004E5
:1001500080648093600410926204809162048063E2
:100160008093620480916304807F80936304809114
:0E0170006304886080936304FFCFF894FFCF90
:00000001FF
